:020000020000FC
:100000000EC058C0000000007FC082C08CC000003D
:1000100000000000626B6F3431302D7230350FED0F
:100020000DBF00E008BB0CEF07BB08E702BB00E018
:1000300001BB02E003BF02E00EBD772788279927A6
:10004000BB27A0E600270D93A537E8F309D204E605
:10005000B02EE9D0E8D0BBD0DAD0BCD0D8D0BDD05B
:10006000D6D002E3302E0BEF202E00E0C02ED02E93
:1000700002EC08BF09BF789403E005BF00E40BBFA2
:100080002AE083FFFECF092D1A2D877F0C541440E0
:10009000B8F72A95B1F7F894A3D0A2D0A1D078945C
:1000A000C0E8DBEBC0936B00D0936C000EE10093D3
:1000B0007100F1C11FB644274BBF45B740FF09C0CF
:1000C000829B1EC042E045BF4CB55DB5742E852EA7
:1000D00017C0829915C043E045BF83FD11C04CB5E0
:1000E0005DB547195809942EA52E483968E0560782
:1000F00038F4403263E0560718F0886044E6B42EC6
:1001000050E45BBF1FBE18951FB67E7F1FBE1895BB
:100110001FB643947068EE2009F0EA94BB2009F002
:10012000BA941FBE18951FB676FD2BC040B34093FE
:100130007300422D562D541730F43A9459F452E37B
:10014000352E4A9506C031F03A9421F458E2352E06
:100150004395242E706474FF08C094FF03C0839BF2
:1001600072609F7E81FFC69807C075FF03C081FF44
:10017000C79802C081FFC598422D4C59409542BF97
:1001800022C0422D42BF7F7B74FF03C080FFC69A0E
:1001900007C075FF03C080FFC79A02C080FFC59AE1
:1001A0004D3918F482608E7F07C04B3F18F08D7F69
:1001B000816002C08D7F8E7F86FF05C0C59B03C016
:1001C000459B74608F7B93FD81601FBE189538EC52
:1001D00010E509C034EB14E606C030EA18E703C0A6
:1001E00034E618EC00C0002702BFC49AC79A02B7D1
:1001F0000032E9F7C498C79828E0002702BF02B789
:100200000317E9F72A95C9F71A9569F708951FE0CA
:1002100028E0002702BF02B70F3FE9F72A95C9F788
:100220001A95B1F7089510E828E0002702BF02B739
:100230000F3FE9F72A95C9F71A95B1F7089530E00D
:100240003BBF30E03EBD32E00CB51DB53EBD08956C
:100250008F7E83FF14C0092D1A2D877F0C54144004
:1002600010F40027112716950795169507951695F2
:100270000795202F0456104008F024E6F22F089529
:100280008F7708958F7D77FF17C07F7772FF06C045
:100290007B7F4C2D433090F4C39403C0CC2009F0F5
:1002A000CA9471FF06C07D7F4D2D443628F4D39447
:1002B00003C0DD2009F0DA94ACD00895F894AFCEF5
:1002C000BEDF00936000109361000C0F1D1F32E829
:1002D00039BF1BBD0ABD716032EC39BF30E43BBF92
:1002E0000091640010916500E0916600E695179515
:1002F000079500936D0010936E00E695179507958E
:100300002091640030916500E0916600201B310B64
:10031000E0400091600010916100C0916200D091B6
:10032000630000936200109363000C1B1D0B00938D
:100330006F0010937000200F311F10E0E11FEE23BB
:1003400061F4332321F0313041F42C3430F431E0C6
:100350002CE4FF2011F40FEFF02E20936400309373
:100360006500E370E09366000895C0916700D09146
:100370006800A6DFE69537952795E695379527958A
:10038000E69537952795E69537952795209367004D
:10039000309368002093690030936A00089570FDDF
:1003A000FECFD0916E00C0916D0049DF0C0F1D1F74
:1003B00032E839BF1BBD0ABD716032EC39BF30E491
:1003C0003BBF08953CDFC0916900D0916A000C0FDB
:1003D0001D1F22E829BF1BBD0ABD716022EC29BF89
:1003E00030E43BBF84FD34DF85FD4CDF70FDFECF84
:1003F0000895C0916B00D0916C0062DF0CB50F7056
:10040000D01BDC3808F4DBEBD0936C0039D038D04B
:1004100008950F2F0D1908F404E0109166001123C0
:1004200021F410916500103438F09160926019E168
:10043000011798F0012F11C095FF05C02AE002179F
:1004400010F0022F0AC0103238F09E7F926012E343
:10045000011718F0012F01C09C7F0095602E0895B0
:10046000F4E00BEF202E602E00E008BB02E3302EFC
:100470008160977F9062089504E00A95F1F70895EE
:1004800076FDFECF76FFFECF0091730008950895AC
:10049000089508950895E4DFFDDFDADEF530E8F32E
:1004A00005E00095602E00EC09BF00007F7D7061C3
:1004B000C49A81FD02C076FD03C0C79880FFC69A2A
:1004C00002EC09BF9B7F00E00093720008E2E02E7F
:1004D00090DF05FF12C070FD02C0946016C0D0DF2F
:1004E000D6DF05FDF8CF00E00093720002D105D100
:1004F00013D1AEDEC5DE7DDF36C070FD02C0946074
:1005000004C0BEDFC4DF05FFF8CFF3D072DF04FD07
:1005100009C070FD02C094600DC0B2DFB9DF04FFF6
:10052000F8CF08C070FD02C0946004C0A9DFB0DF3E
:1005300004FDF8CFE2D08CDE5CDF06FF09C070FD61
:1005400002C094600DC09CDFA4DF06FDF8CF08C098
:1005500070FD02C0946004C093DF9BDF06FFF8CFFC
:10056000DBD08EDE46DF05FD09C070FD02C0946061
:100570000DC086DF8CDF05FFF8CF08C070FD02C01C
:10058000946004C07DDF83DF05FDF8CFC9D031DF83
:1005900004FF09C070FD02C094600DC071DF78DFF8
:1005A00004FDF8CF08C070FD02C0946004C068DF8D
:1005B0006FDF04FFF8CFC3D065DE1BDF06FD09C087
:1005C00070FD02C094600DC05BDF63DF06FFF8CFF3
:1005D00008C070FD02C0946004C052DF5ADF06FDFF
:1005E000F8CFB1D0022D0B3F09F455CFBB2009F451
:1005F0007DC0EE2009F451CF00917000053050F01D
:100600000091720092FD00270395009372009B7F7A
:100610000C3330F00FEFF02EA8DEC3DE9F7D02C05A
:10062000E8DE57CF70FD01C052C0859BFBCF24DFB1
:10063000859BF8CFC7DE5DD098DEB1DE906170FD9E
:1006400001C045C08499FBCF17DF8499F8CF806142
:10065000B9DE9F7E52D089DEA2DE70FD01C037C0B8
:10066000869BFBCF09DF869BF8CF8068ABDE54D03A
:100670007CDE95DE806470FD01C029C08599FBCFCA
:10068000FBDE8599F8CF9EDE8F7B4AD06EDE87DE5B
:1006900070FD01C01CC0849BFBCFEEDE849BF8CFB5
:1006A000806290DE4CD061DE7ADE70FD01C00FC04A
:1006B0008699FBCFE1DE8699F8CF84DE44D055DE03
:1006C0006EDEBB2099F000916600002319F0906265
:1006D000977FE3CE977FFF2041F0FA9429F00F2D0A
:1006E000013011F0023009F498609CCFF894B8DE24
:1006F00096CCC49880FFC39A089500EC09BF00000F
:100700007F7D7F7E81FD02C076FD03C0C69880FF9D
:10071000C59A02EC09BF0895C39880FFC29A089554
:1007200000EC09BF000070627F7E81FD02C076FD93
:1007300003C0C59880FFC79A02EC09BF0895C2980C
:1007400080FFC49A089500EC09BF00007F7D7061AE
:1007500081FD02C076FD03C0C79880FFC69A02ECF7
:0407600009BF089530
:00000001FF
